{
  "_format": "hh-sol-artifact-1",
  "contractName": "Contract",
  "sourceName": "contracts/Contract.sol",
  "abi": [
    {
      "inputs": [],
      "stateMutability": "nonpayable",
      "type": "constructor"
    },
    {
      "inputs": [
        {
          "internalType": "uint256",
          "name": "",
          "type": "uint256"
        }
      ],
      "name": "DrIDs",
      "outputs": [
        {
          "internalType": "address",
          "name": "",
          "type": "address"
        }
      ],
      "stateMutability": "view",
      "type": "function"
    },
    {
      "inputs": [
        {
          "internalType": "address",
          "name": "dr_id",
          "type": "address"
        },
        {
          "internalType": "string",
          "name": "_drInfo_hash",
          "type": "string"
        }
      ],
      "name": "addDrInfo",
      "outputs": [],
      "stateMutability": "nonpayable",
      "type": "function"
    },
    {
      "inputs": [],
      "name": "getAllDrs",
      "outputs": [
        {
          "internalType": "address[]",
          "name": "",
          "type": "address[]"
        }
      ],
      "stateMutability": "view",
      "type": "function"
    },
    {
      "inputs": [
        {
          "internalType": "address",
          "name": "_id",
          "type": "address"
        }
      ],
      "name": "getDr",
      "outputs": [
        {
          "internalType": "string",
          "name": "",
          "type": "string"
        }
      ],
      "stateMutability": "view",
      "type": "function"
    },
    {
      "inputs": [],
      "name": "isAdmin",
      "outputs": [
        {
          "internalType": "bool",
          "name": "",
          "type": "bool"
        }
      ],
      "stateMutability": "view",
      "type": "function"
    },
    {
      "inputs": [
        {
          "internalType": "address",
          "name": "id",
          "type": "address"
        }
      ],
      "name": "isDr",
      "outputs": [
        {
          "internalType": "bool",
          "name": "",
          "type": "bool"
        }
      ],
      "stateMutability": "view",
      "type": "function"
    }
  ],
  "bytecode": "0x60806040523480156200001157600080fd5b506200002d3360006200003360201b6200048f1790919060201c565b620002cb565b620000458282620000e660201b60201c565b1562000088576040517f08c379a00000000000000000000000000000000000000000000000000000000081526004016200007f9062000211565b60405180910390fd5b60018260000160008373ffffffffffffffffffffffffffffffffffffffff1673ffffffffffffffffffffffffffffffffffffffff16815260200190815260200160002060006101000a81548160ff0219169083151502179055505050565b60008073ffffffffffffffffffffffffffffffffffffffff168273ffffffffffffffffffffffffffffffffffffffff160362000159576040517f08c379a00000000000000000000000000000000000000000000000000000000081526004016200015090620002a9565b60405180910390fd5b8260000160008373ffffffffffffffffffffffffffffffffffffffff1673ffffffffffffffffffffffffffffffffffffffff16815260200190815260200160002060009054906101000a900460ff16905092915050565b600082825260208201905092915050565b7f526f6c65733a206163636f756e7420616c72656164792068617320726f6c6500600082015250565b6000620001f9601f83620001b0565b91506200020682620001c1565b602082019050919050565b600060208201905081810360008301526200022c81620001ea565b9050919050565b7f526f6c65733a206163636f756e7420697320746865207a65726f20616464726560008201527f7373000000000000000000000000000000000000000000000000000000000000602082015250565b600062000291602283620001b0565b91506200029e8262000233565b604082019050919050565b60006020820190508181036000830152620002c48162000282565b9050919050565b610f0180620002db6000396000f3fe608060405234801561001057600080fd5b50600436106100625760003560e01c806317335a95146100675780631da3e2dc14610083578063b6db75a0146100a1578063bb13227c146100bf578063be956873146100ef578063d4fd45c41461011f575b600080fd5b610081600480360381019061007c91906107b6565b61014f565b005b61008b6102b6565b60405161009891906108d0565b60405180910390f35b6100a9610344565b6040516100b6919061090d565b60405180910390f35b6100d960048036038101906100d4919061095e565b61035f565b6040516100e6919061099a565b60405180910390f35b610109600480360381019061010491906109b5565b61039e565b604051610116919061090d565b60405180910390f35b610139600480360381019061013491906109b5565b6103bb565b6040516101469190610a61565b60405180910390f35b61016333600061053790919063ffffffff16565b6101a2576040517f08c379a000000000000000000000000000000000000000000000000000000000815260040161019990610acf565b60405180910390fd5b6000600260008473ffffffffffffffffffffffffffffffffffffffff1673ffffffffffffffffffffffffffffffffffffffff1681526020019081526020016000209050828160000160006101000a81548173ffffffffffffffffffffffffffffffffffffffff021916908373ffffffffffffffffffffffffffffffffffffffff160217905550818160010190816102399190610cfb565b506003839080600181540180825580915050600190039060005260206000200160009091909190916101000a81548173ffffffffffffffffffffffffffffffffffffffff021916908373ffffffffffffffffffffffffffffffffffffffff1602179055506102b183600161048f90919063ffffffff16565b505050565b6060600380548060200260200160405190810160405280929190818152602001828054801561033a57602002820191906000526020600020905b8160009054906101000a900473ffffffffffffffffffffffffffffffffffffffff1673ffffffffffffffffffffffffffffffffffffffff16815260200190600101908083116102f0575b5050505050905090565b600061035a33600061053790919063ffffffff16565b905090565b6003818154811061036f57600080fd5b906000526020600020016000915054906101000a900473ffffffffffffffffffffffffffffffffffffffff1681565b60006103b482600161053790919063ffffffff16565b9050919050565b6060600260008373ffffffffffffffffffffffffffffffffffffffff1673ffffffffffffffffffffffffffffffffffffffff168152602001908152602001600020600101805461040a90610b1e565b80601f016020809104026020016040519081016040528092919081815260200182805461043690610b1e565b80156104835780601f1061045857610100808354040283529160200191610483565b820191906000526020600020905b81548152906001019060200180831161046657829003601f168201915b50505050509050919050565b6104998282610537565b156104d9576040517f08c379a00000000000000000000000000000000000000000000000000000000081526004016104d090610e19565b60405180910390fd5b60018260000160008373ffffffffffffffffffffffffffffffffffffffff1673ffffffffffffffffffffffffffffffffffffffff16815260200190815260200160002060006101000a81548160ff0219169083151502179055505050565b60008073ffffffffffffffffffffffffffffffffffffffff168273ffffffffffffffffffffffffffffffffffffffff16036105a7576040517f08c379a000000000000000000000000000000000000000000000000000000000815260040161059e90610eab565b60405180910390fd5b8260000160008373ffffffffffffffffffffffffffffffffffffffff1673ffffffffffffffffffffffffffffffffffffffff16815260200190815260200160002060009054906101000a900460ff16905092915050565b6000604051905090565b600080fd5b600080fd5b600073ffffffffffffffffffffffffffffffffffffffff82169050919050565b600061063d82610612565b9050919050565b61064d81610632565b811461065857600080fd5b50565b60008135905061066a81610644565b92915050565b600080fd5b600080fd5b6000601f19601f8301169050919050565b7f4e487b7100000000000000000000000000000000000000000000000000000000600052604160045260246000fd5b6106c38261067a565b810181811067ffffffffffffffff821117156106e2576106e161068b565b5b80604052505050565b60006106f56105fe565b905061070182826106ba565b919050565b600067ffffffffffffffff8211156107215761072061068b565b5b61072a8261067a565b9050602081019050919050565b82818337600083830152505050565b600061075961075484610706565b6106eb565b90508281526020810184848401111561077557610774610675565b5b610780848285610737565b509392505050565b600082601f83011261079d5761079c610670565b5b81356107ad848260208601610746565b91505092915050565b600080604083850312156107cd576107cc610608565b5b60006107db8582860161065b565b925050602083013567ffffffffffffffff8111156107fc576107fb61060d565b5b61080885828601610788565b9150509250929050565b600081519050919050565b600082825260208201905092915050565b6000819050602082019050919050565b61084781610632565b82525050565b6000610859838361083e565b60208301905092915050565b6000602082019050919050565b600061087d82610812565b610887818561081d565b93506108928361082e565b8060005b838110156108c35781516108aa888261084d565b97506108b583610865565b925050600181019050610896565b5085935050505092915050565b600060208201905081810360008301526108ea8184610872565b905092915050565b60008115159050919050565b610907816108f2565b82525050565b600060208201905061092260008301846108fe565b92915050565b6000819050919050565b61093b81610928565b811461094657600080fd5b50565b60008135905061095881610932565b92915050565b60006020828403121561097457610973610608565b5b600061098284828501610949565b91505092915050565b61099481610632565b82525050565b60006020820190506109af600083018461098b565b92915050565b6000602082840312156109cb576109ca610608565b5b60006109d98482850161065b565b91505092915050565b600081519050919050565b600082825260208201905092915050565b60005b83811015610a1c578082015181840152602081019050610a01565b60008484015250505050565b6000610a33826109e2565b610a3d81856109ed565b9350610a4d8185602086016109fe565b610a568161067a565b840191505092915050565b60006020820190508181036000830152610a7b8184610a28565b905092915050565b7f4f6e6c7920466f722041646d696e000000000000000000000000000000000000600082015250565b6000610ab9600e836109ed565b9150610ac482610a83565b602082019050919050565b60006020820190508181036000830152610ae881610aac565b9050919050565b7f4e487b7100000000000000000000000000000000000000000000000000000000600052602260045260246000fd5b60006002820490506001821680610b3657607f821691505b602082108103610b4957610b48610aef565b5b50919050565b60008190508160005260206000209050919050565b60006020601f8301049050919050565b600082821b905092915050565b600060088302610bb17fffffffffffffffffffffffffffffffffffffffffffffffffffffffffffffffff82610b74565b610bbb8683610b74565b95508019841693508086168417925050509392505050565b6000819050919050565b6000610bf8610bf3610bee84610928565b610bd3565b610928565b9050919050565b6000819050919050565b610c1283610bdd565b610c26610c1e82610bff565b848454610b81565b825550505050565b600090565b610c3b610c2e565b610c46818484610c09565b505050565b5b81811015610c6a57610c5f600082610c33565b600181019050610c4c565b5050565b601f821115610caf57610c8081610b4f565b610c8984610b64565b81016020851015610c98578190505b610cac610ca485610b64565b830182610c4b565b50505b505050565b600082821c905092915050565b6000610cd260001984600802610cb4565b1980831691505092915050565b6000610ceb8383610cc1565b9150826002028217905092915050565b610d04826109e2565b67ffffffffffffffff811115610d1d57610d1c61068b565b5b610d278254610b1e565b610d32828285610c6e565b600060209050601f831160018114610d655760008415610d53578287015190505b610d5d8582610cdf565b865550610dc5565b601f198416610d7386610b4f565b60005b82811015610d9b57848901518255600182019150602085019450602081019050610d76565b86831015610db85784890151610db4601f891682610cc1565b8355505b6001600288020188555050505b505050505050565b7f526f6c65733a206163636f756e7420616c72656164792068617320726f6c6500600082015250565b6000610e03601f836109ed565b9150610e0e82610dcd565b602082019050919050565b60006020820190508181036000830152610e3281610df6565b9050919050565b7f526f6c65733a206163636f756e7420697320746865207a65726f20616464726560008201527f7373000000000000000000000000000000000000000000000000000000000000602082015250565b6000610e956022836109ed565b9150610ea082610e39565b604082019050919050565b60006020820190508181036000830152610ec481610e88565b905091905056fea264697066735822122095c57d02edafdf60430b85859b14a4d2efeb79dca55ef85aae3b769e5ada9a6d64736f6c63430008120033",
  "linkReferences": {},
  "deployedLinkReferences": {}
}