{
  "_format": "hh-sol-artifact-1",
  "contractName": "Contract",
  "sourceName": "contracts/Contract.sol",
  "abi": [
    {
      "inputs": [],
      "stateMutability": "nonpayable",
      "type": "constructor"
    },
    {
      "anonymous": false,
      "inputs": [
        {
          "indexed": true,
          "internalType": "address",
          "name": "_id",
          "type": "address"
        },
        {
          "indexed": false,
          "internalType": "string",
          "name": "_name",
          "type": "string"
        },
        {
          "indexed": false,
          "internalType": "string",
          "name": "_speciality",
          "type": "string"
        },
        {
          "indexed": false,
          "internalType": "uint256",
          "name": "_exp",
          "type": "uint256"
        },
        {
          "indexed": false,
          "internalType": "string",
          "name": "_drInfo_hash",
          "type": "string"
        }
      ],
      "name": "DoctorAdded",
      "type": "event"
    },
    {
      "inputs": [
        {
          "internalType": "uint256",
          "name": "",
          "type": "uint256"
        }
      ],
      "name": "DrIDs",
      "outputs": [
        {
          "internalType": "address",
          "name": "",
          "type": "address"
        }
      ],
      "stateMutability": "view",
      "type": "function"
    },
    {
      "inputs": [
        {
          "internalType": "string",
          "name": "_name",
          "type": "string"
        },
        {
          "internalType": "address",
          "name": "dr_id",
          "type": "address"
        },
        {
          "internalType": "string",
          "name": "_speciality",
          "type": "string"
        },
        {
          "internalType": "uint256",
          "name": "_exp",
          "type": "uint256"
        },
        {
          "internalType": "string",
          "name": "_drInfo_hash",
          "type": "string"
        }
      ],
      "name": "addDrInfo",
      "outputs": [],
      "stateMutability": "nonpayable",
      "type": "function"
    },
    {
      "inputs": [],
      "name": "getAllDrs",
      "outputs": [
        {
          "internalType": "address[]",
          "name": "",
          "type": "address[]"
        }
      ],
      "stateMutability": "view",
      "type": "function"
    },
    {
      "inputs": [
        {
          "internalType": "address",
          "name": "_id",
          "type": "address"
        }
      ],
      "name": "getDr",
      "outputs": [
        {
          "components": [
            {
              "internalType": "string",
              "name": "name",
              "type": "string"
            },
            {
              "internalType": "address",
              "name": "id",
              "type": "address"
            },
            {
              "internalType": "string",
              "name": "speciality",
              "type": "string"
            },
            {
              "internalType": "uint256",
              "name": "experience",
              "type": "uint256"
            },
            {
              "internalType": "string",
              "name": "drHash",
              "type": "string"
            }
          ],
          "internalType": "struct Contract.Doctor",
          "name": "",
          "type": "tuple"
        }
      ],
      "stateMutability": "view",
      "type": "function"
    },
    {
      "inputs": [],
      "name": "isAdmin",
      "outputs": [
        {
          "internalType": "bool",
          "name": "",
          "type": "bool"
        }
      ],
      "stateMutability": "view",
      "type": "function"
    },
    {
      "inputs": [
        {
          "internalType": "address",
          "name": "id",
          "type": "address"
        }
      ],
      "name": "isDr",
      "outputs": [
        {
          "internalType": "bool",
          "name": "",
          "type": "bool"
        }
      ],
      "stateMutability": "view",
      "type": "function"
    }
  ],
  "bytecode": "0x60806040523480156200001157600080fd5b506200002d3360006200003360201b620006fa1790919060201c565b620002cb565b620000458282620000e660201b60201c565b1562000088576040517f08c379a00000000000000000000000000000000000000000000000000000000081526004016200007f9062000211565b60405180910390fd5b60018260000160008373ffffffffffffffffffffffffffffffffffffffff1673ffffffffffffffffffffffffffffffffffffffff16815260200190815260200160002060006101000a81548160ff0219169083151502179055505050565b60008073ffffffffffffffffffffffffffffffffffffffff168273ffffffffffffffffffffffffffffffffffffffff160362000159576040517f08c379a00000000000000000000000000000000000000000000000000000000081526004016200015090620002a9565b60405180910390fd5b8260000160008373ffffffffffffffffffffffffffffffffffffffff1673ffffffffffffffffffffffffffffffffffffffff16815260200190815260200160002060009054906101000a900460ff16905092915050565b600082825260208201905092915050565b7f526f6c65733a206163636f756e7420616c72656164792068617320726f6c6500600082015250565b6000620001f9601f83620001b0565b91506200020682620001c1565b602082019050919050565b600060208201905081810360008301526200022c81620001ea565b9050919050565b7f526f6c65733a206163636f756e7420697320746865207a65726f20616464726560008201527f7373000000000000000000000000000000000000000000000000000000000000602082015250565b600062000291602283620001b0565b91506200029e8262000233565b604082019050919050565b60006020820190508181036000830152620002c48162000282565b9050919050565b61136a80620002db6000396000f3fe608060405234801561001057600080fd5b50600436106100625760003560e01c80631da3e2dc14610067578063b6db75a014610085578063bb13227c146100a3578063be956873146100d3578063d4fd45c414610103578063f915c2d014610133575b600080fd5b61006f61014f565b60405161007c919061099e565b60405180910390f35b61008d6101dd565b60405161009a91906109db565b60405180910390f35b6100bd60048036038101906100b89190610a40565b6101f8565b6040516100ca9190610a7c565b60405180910390f35b6100ed60048036038101906100e89190610ac3565b610237565b6040516100fa91906109db565b60405180910390f35b61011d60048036038101906101189190610ac3565b610254565b60405161012a9190610c13565b60405180910390f35b61014d60048036038101906101489190610d6a565b6104c3565b005b606060038054806020026020016040519081016040528092919081815260200182805480156101d357602002820191906000526020600020905b8160009054906101000a900473ffffffffffffffffffffffffffffffffffffffff1673ffffffffffffffffffffffffffffffffffffffff1681526020019060010190808311610189575b5050505050905090565b60006101f33360006107a290919063ffffffff16565b905090565b6003818154811061020857600080fd5b906000526020600020016000915054906101000a900473ffffffffffffffffffffffffffffffffffffffff1681565b600061024d8260016107a290919063ffffffff16565b9050919050565b61025c610869565b600260008373ffffffffffffffffffffffffffffffffffffffff1673ffffffffffffffffffffffffffffffffffffffff1681526020019081526020016000206040518060a00160405290816000820180546102b690610e68565b80601f01602080910402602001604051908101604052809291908181526020018280546102e290610e68565b801561032f5780601f106103045761010080835404028352916020019161032f565b820191906000526020600020905b81548152906001019060200180831161031257829003601f168201915b505050505081526020016001820160009054906101000a900473ffffffffffffffffffffffffffffffffffffffff1673ffffffffffffffffffffffffffffffffffffffff1673ffffffffffffffffffffffffffffffffffffffff16815260200160028201805461039e90610e68565b80601f01602080910402602001604051908101604052809291908181526020018280546103ca90610e68565b80156104175780601f106103ec57610100808354040283529160200191610417565b820191906000526020600020905b8154815290600101906020018083116103fa57829003601f168201915b505050505081526020016003820154815260200160048201805461043a90610e68565b80601f016020809104026020016040519081016040528092919081815260200182805461046690610e68565b80156104b35780601f10610488576101008083540402835291602001916104b3565b820191906000526020600020905b81548152906001019060200180831161049657829003601f168201915b5050505050815250509050919050565b6104d73360006107a290919063ffffffff16565b610516576040517f08c379a000000000000000000000000000000000000000000000000000000000815260040161050d90610ef6565b60405180910390fd5b6040518060a001604052808681526020018573ffffffffffffffffffffffffffffffffffffffff16815260200184815260200183815260200182815250600260008673ffffffffffffffffffffffffffffffffffffffff1673ffffffffffffffffffffffffffffffffffffffff16815260200190815260200160002060008201518160000190816105a791906110c2565b5060208201518160010160006101000a81548173ffffffffffffffffffffffffffffffffffffffff021916908373ffffffffffffffffffffffffffffffffffffffff160217905550604082015181600201908161060491906110c2565b5060608201518160030155608082015181600401908161062491906110c2565b509050506003849080600181540180825580915050600190039060005260206000200160009091909190916101000a81548173ffffffffffffffffffffffffffffffffffffffff021916908373ffffffffffffffffffffffffffffffffffffffff16021790555061069f8460016106fa90919063ffffffff16565b8373ffffffffffffffffffffffffffffffffffffffff167f05a2993a4d72e7a60193985f9bd3e98d352bc914724c91a1d197828efb78226a868585856040516106eb94939291906111dc565b60405180910390a25050505050565b61070482826107a2565b15610744576040517f08c379a000000000000000000000000000000000000000000000000000000000815260040161073b90611282565b60405180910390fd5b60018260000160008373ffffffffffffffffffffffffffffffffffffffff1673ffffffffffffffffffffffffffffffffffffffff16815260200190815260200160002060006101000a81548160ff0219169083151502179055505050565b60008073ffffffffffffffffffffffffffffffffffffffff168273ffffffffffffffffffffffffffffffffffffffff1603610812576040517f08c379a000000000000000000000000000000000000000000000000000000000815260040161080990611314565b60405180910390fd5b8260000160008373ffffffffffffffffffffffffffffffffffffffff1673ffffffffffffffffffffffffffffffffffffffff16815260200190815260200160002060009054906101000a900460ff16905092915050565b6040518060a0016040528060608152602001600073ffffffffffffffffffffffffffffffffffffffff1681526020016060815260200160008152602001606081525090565b600081519050919050565b600082825260208201905092915050565b6000819050602082019050919050565b600073ffffffffffffffffffffffffffffffffffffffff82169050919050565b6000610905826108da565b9050919050565b610915816108fa565b82525050565b6000610927838361090c565b60208301905092915050565b6000602082019050919050565b600061094b826108ae565b61095581856108b9565b9350610960836108ca565b8060005b83811015610991578151610978888261091b565b975061098383610933565b925050600181019050610964565b5085935050505092915050565b600060208201905081810360008301526109b88184610940565b905092915050565b60008115159050919050565b6109d5816109c0565b82525050565b60006020820190506109f060008301846109cc565b92915050565b6000604051905090565b600080fd5b600080fd5b6000819050919050565b610a1d81610a0a565b8114610a2857600080fd5b50565b600081359050610a3a81610a14565b92915050565b600060208284031215610a5657610a55610a00565b5b6000610a6484828501610a2b565b91505092915050565b610a76816108fa565b82525050565b6000602082019050610a916000830184610a6d565b92915050565b610aa0816108fa565b8114610aab57600080fd5b50565b600081359050610abd81610a97565b92915050565b600060208284031215610ad957610ad8610a00565b5b6000610ae784828501610aae565b91505092915050565b600081519050919050565b600082825260208201905092915050565b60005b83811015610b2a578082015181840152602081019050610b0f565b60008484015250505050565b6000601f19601f8301169050919050565b6000610b5282610af0565b610b5c8185610afb565b9350610b6c818560208601610b0c565b610b7581610b36565b840191505092915050565b610b8981610a0a565b82525050565b600060a0830160008301518482036000860152610bac8282610b47565b9150506020830151610bc1602086018261090c565b5060408301518482036040860152610bd98282610b47565b9150506060830151610bee6060860182610b80565b5060808301518482036080860152610c068282610b47565b9150508091505092915050565b60006020820190508181036000830152610c2d8184610b8f565b905092915050565b600080fd5b600080fd5b7f4e487b7100000000000000000000000000000000000000000000000000000000600052604160045260246000fd5b610c7782610b36565b810181811067ffffffffffffffff82111715610c9657610c95610c3f565b5b80604052505050565b6000610ca96109f6565b9050610cb58282610c6e565b919050565b600067ffffffffffffffff821115610cd557610cd4610c3f565b5b610cde82610b36565b9050602081019050919050565b82818337600083830152505050565b6000610d0d610d0884610cba565b610c9f565b905082815260208101848484011115610d2957610d28610c3a565b5b610d34848285610ceb565b509392505050565b600082601f830112610d5157610d50610c35565b5b8135610d61848260208601610cfa565b91505092915050565b600080600080600060a08688031215610d8657610d85610a00565b5b600086013567ffffffffffffffff811115610da457610da3610a05565b5b610db088828901610d3c565b9550506020610dc188828901610aae565b945050604086013567ffffffffffffffff811115610de257610de1610a05565b5b610dee88828901610d3c565b9350506060610dff88828901610a2b565b925050608086013567ffffffffffffffff811115610e2057610e1f610a05565b5b610e2c88828901610d3c565b9150509295509295909350565b7f4e487b7100000000000000000000000000000000000000000000000000000000600052602260045260246000fd5b60006002820490506001821680610e8057607f821691505b602082108103610e9357610e92610e39565b5b50919050565b600082825260208201905092915050565b7f4f6e6c7920466f722041646d696e000000000000000000000000000000000000600082015250565b6000610ee0600e83610e99565b9150610eeb82610eaa565b602082019050919050565b60006020820190508181036000830152610f0f81610ed3565b9050919050565b60008190508160005260206000209050919050565b60006020601f8301049050919050565b600082821b905092915050565b600060088302610f787fffffffffffffffffffffffffffffffffffffffffffffffffffffffffffffffff82610f3b565b610f828683610f3b565b95508019841693508086168417925050509392505050565b6000819050919050565b6000610fbf610fba610fb584610a0a565b610f9a565b610a0a565b9050919050565b6000819050919050565b610fd983610fa4565b610fed610fe582610fc6565b848454610f48565b825550505050565b600090565b611002610ff5565b61100d818484610fd0565b505050565b5b8181101561103157611026600082610ffa565b600181019050611013565b5050565b601f8211156110765761104781610f16565b61105084610f2b565b8101602085101561105f578190505b61107361106b85610f2b565b830182611012565b50505b505050565b600082821c905092915050565b60006110996000198460080261107b565b1980831691505092915050565b60006110b28383611088565b9150826002028217905092915050565b6110cb82610af0565b67ffffffffffffffff8111156110e4576110e3610c3f565b5b6110ee8254610e68565b6110f9828285611035565b600060209050601f83116001811461112c576000841561111a578287015190505b61112485826110a6565b86555061118c565b601f19841661113a86610f16565b60005b828110156111625784890151825560018201915060208501945060208101905061113d565b8683101561117f578489015161117b601f891682611088565b8355505b6001600288020188555050505b505050505050565b600061119f82610af0565b6111a98185610e99565b93506111b9818560208601610b0c565b6111c281610b36565b840191505092915050565b6111d681610a0a565b82525050565b600060808201905081810360008301526111f68187611194565b9050818103602083015261120a8186611194565b905061121960408301856111cd565b818103606083015261122b8184611194565b905095945050505050565b7f526f6c65733a206163636f756e7420616c72656164792068617320726f6c6500600082015250565b600061126c601f83610e99565b915061127782611236565b602082019050919050565b6000602082019050818103600083015261129b8161125f565b9050919050565b7f526f6c65733a206163636f756e7420697320746865207a65726f20616464726560008201527f7373000000000000000000000000000000000000000000000000000000000000602082015250565b60006112fe602283610e99565b9150611309826112a2565b604082019050919050565b6000602082019050818103600083015261132d816112f1565b905091905056fea2646970667358221220a244b8392885d977818931577b5fd693d845d51e6e253926de2b065a7f75d91164736f6c63430008120033",
  "linkReferences": {},
  "deployedLinkReferences": {}
}